:100000000C9434000C946A0F0C946A0F0C946A0FD1
:100010000C946A0F0C946A0F0C945C0F0C946A0F8A
:100020000C946A0F0C946A0F0C946A0F0C946A0F6C
:100030000C946A0F0C946A0F0C946A0F0C946A0F5C
:100040000C940E0F0C946A0F0C94DF0E0C946A0F34
:100050000C946A0F0C946A0F0C946A0F0C946A0F3C
:100060000C946A0F0C946A0F1124A0E0B3E0ADBFAA
:10007000BEBF0F92A0E0B3E0CDE7D3E0EEE9FFE131
:10008000AC17BD0719F005900D92FACFA0E8B3E0C8
:1000900082E194E020E0A817B90711F02D93FBCF7F
:1000A0000E94B803CF93DF93CDB7DEB723970FB687
:1000B000F894DEBF0FBECDBF682FCE0101960E941F
:1000C000AB00A981BA81119780E090E0A817B90729
:1000D00069F08B819C91982B9C9323960FB6F89492
:1000E000DEBF0FBECDBFDF91CF9108950E942A03DE
:1000F000CF93DF931F93CDB7DEB723970FB6F89456
:10010000DEBF0FBECDBF162F682FCE0101960E9415
:10011000AB0011708B81A981BA8120E030E01030F2
:1001200039F0A217B307A9F09C91982B9C9307C0B4
:10013000A217B30771F09C91809589238C93239625
:100140000FB6F894DEBF0FBECDBF1F91DF91CF91E8
:1001500008950E942A03683070F425E230E0FC0123
:100160002083318321E0603019F0220F6150E9F7DC
:10017000FC0122830895603170F428E230E0FC0134
:1001800020833183685021E0603091F0362F220FB8
:100190003150E9F70DC02BE230E0FC0120833183C0
:1001A000605121E0603021F0362F220F3150E9F705
:1001B00030E0683008F4322FFC0132830895EF926A
:1001C000FF920F931F938B017C0180E593E066E122
:1001D00070E00E944203C701B8010E9442030E94DE
:1001E00031030E94F8001F910F91FF90EF90089546
:1001F00081E090E0F894A895209160002861209318
:10020000600020916000276420936000789483BF91
:10021000889593BFEFCFCF93DF932F923F924F926A
:100220005F926F927F928F929F92AF92BF92CF9286
:10023000DF92EF92FF920F931F93CDB7DEB7249713
:100240000FB6F894DEBF0FBECDBF60E070E086173A
:10025000970709F431C18B839C8307969695879500
:1002600096958795969587953C018091810390910D
:10027000820322E134E000E019E0A801421B530BA5
:100280005695479556954795569547955695479552
:1002900056954795475E5B4F487F087F49835A8351
:1002A000041B150B1695079516950795680116956D
:1002B000079521E030E019017C015B0140E04B0132
:1002C000E816F90609F085C0403009F438C041301D
:1002D00009F037C00E94340F80E093E062E174E0DF
:1002E0000E94AB02B40180918503803009F433C0D1
:1002F00080E080938503CB01209183032030980117
:1003000009F49B018217930770F7282F220F26709C
:10031000DC01B695A795B695A795AE5EBB4F3C910F
:10032000203019F036952150E9F73370333029F435
:100330002C010E94E503C201B4010196DDCF41E02A
:1003400048C080E093E06DE070E0542E0E94DF0032
:10035000452DB4013EC0E0E0CB0120918303203065
:10036000980109F49B018217930708F031C0582FB8
:10037000550F5670DC01B695A795B695A795AE5E5C
:10038000BB4F2C915030322F452F19F036954150EC
:10039000E9F73370333029F0323069F0313071F0E1
:1003A00015C032E0503019F0330F5150E9F7309555
:1003B00023232C930AC0E170E03039F02C010E9415
:1003C0008F02C201B401E1E001C0E0E00196C5CFB7
:1003D00042E080918303803011F4CB0103C0C60159
:1003E00096958795E816F906FB0109F0F7012E2F7F
:1003F000220F2670DF01B695A795B695A795AE5E3C
:10040000BB4F3C91203019F036952150E9F73370FD
:10041000303021F031967F015B010DC0E816F906FE
:10042000C10111F0C501019631969301821793071E
:1004300039F07F015C01809181039091820340CF6C
:10044000F0938203E0938103E619F70921E0CF01DD
:10045000382F330F3670303019F0220F3150E9F752
:10046000DC01B695A795B695A795AE5EBB4F3C91BE
:10047000322B3C93019622E04091810350918203FC
:100480008417950729F780918403803089819A81A8
:1004900011F480E090E0EE0FFF1FEE0FFF1FEE0F54
:1004A000FF1FE80FF91FCF0160E04B815C818F01D6
:1004B0000E94A80FC80102C080E893E024960FB6FE
:1004C000F894DEBF0FBECDBF1F910F91FF90EF904C
:1004D000DF90CF90BF90AF909F908F907F906F9064
:1004E0005F904F903F902F90DF91CF910895FC0146
:1004F000CF01282F220F2670DC01B695A795B6955F
:10050000A795AE5EBB4F3C91203019F03695215037
:10051000E9F73370FC013197323051F30895DC0173
:100520009A2F990F967083E0903019F0880F9150B0
:10053000E9F78095B695A795B695A795AE5EBB4FA2
:100540009C9198239C93089580E193E062E170E090
:100550000E94DF0008958F929F92AF92BF92CF9238
:10056000DF92EF92FF920F931F937B01DC0182E1F8
:1005700094E040E059E08A01081B190B1695079595
:10058000169507951695079516950795169507954F
:10059000075E1B4F087F80E090E04C01AE15BF0561
:1005A00009F44DC0809184038030980109F49401CE
:1005B000FD01808191818417950708F03EC0821764
:1005C000930708F43AC06D01821B930B282F2695E0
:1005D00026952670969587959695879596958795F5
:1005E000DC01B695A795B695A795AE5EBB4F3C913D
:1005F000203019F036952150E9F733703030D601AC
:10060000E1F05A010E947702282F220F2670DC01A8
:10061000B695A795B695A795AE5EBB4F3C91203099
:1006200019F036952150E9F733703330D601A50122
:1006300021F00E94E503A501D6011196AFCF1F91CD
:100640000F91FF90EF90DF90CF90BF90AF909F9071
:100650008F90089580E393E067E170E00E94DF00EF
:1006600008958091C00080728030D9F38DE080932E
:10067000C6008091C00080728030D9F38AE08093F8
:10068000C600089520E030E0A901F901A1E0461775
:100690005707E207F30708F4A0E0A170A03081F447
:1006A000DC01A40FB51FAC91B091C000B072B030A6
:1006B000D9F3A093C6004F5F5F4FEF4FFF4FE6CFD8
:1006C0000895EF92FF920F931F938C017B012AE014
:1006D00030E040E050E081E0E216F3060407150741
:1006E00008F080E08170803061F42AE030E040E082
:1006F00050E0B701C8010E947A0FB901CA010E94F7
:1007000061032AE030E040E050E0B701C8010E94F8
:100710007A0F8091C00080728030D9F3606360935B
:10072000C6001F910F91FF90EF9008951F93182F0F
:100730001A3048F08DEC189F812D112486958695EE
:1007400086950E9496038DEC189F812D1124869525
:10075000869586959AE08902112410198091C0002F
:1007600080728030D9F310631093C6001F910895F2
:100770001F9381E0809383038093840382E194E05C
:1007800040E059E0481B590B5695479556954795BB
:1007900056954795569547955695479510E060E0D4
:1007A0000E94A80F1093C50087E68093C40088E9D3
:1007B0008093C10086E08093C20078940E94DF0598
:1007C00060E073E00E94AB020895CF93DF932F9215
:1007D0003F924F925F926F927F928F929F92AF92D1
:1007E000BF92CF92DF92EF92FF920F931F93CDB7FC
:1007F000DEB764970FB6F894DEBF0FBECDBF8C0195
:10080000CE0105968B839C8302964EE050E060E01B
:100810000E94A80FD801AD83BE839A2F990F9670BE
:1008200083E0903019F0880F9150E9F7B695A795BD
:10083000B695A795AE5EBB4F9C91982B9C9340E0DC
:1008400050E081E090E01C0188E090E03C0182E112
:1008500094E060E079E09B01281B390B36952795E1
:1008600036952795369527953695279529833A838A
:100870007A014A01C10148175907C70148075907BA
:1008800081E00CF480E08170803009F0FAC0F10161
:10089000E150F040D701A040B04081E093011F013A
:1008A000E217F3077D01A407B50708F480E0817023
:1008B000803009F0FFC009811A8116950795075EFF
:1008C0001B4F80918403803011F0A801487FF10113
:1008D000EE0FFF1F8B819C81E80FF91F80819181B2
:1008E0009C01220F331F220F331FF901282F220FE3
:1008F0002670DC01B695A795B695A795AE5EBB4F61
:100900003C91203019F036952150E9F7EE0FFF1F8A
:1009100032603370333009F40196E40FF51F6C0137
:100920002C2D220F2670D601B695A795B695A795C2
:10093000AE5EBB4F3C91203019F036952150E9F75F
:100940003370C6010196323051F3CC0CDD1CCC0C57
:10095000DD1CCC0CDD1CC40ED51EA401DF01AC15C2
:10096000BD0509F487CF80918403803011F49A018A
:1009700002C09801287FFD01808191818617970729
:1009800008F07DC08217930708F479C05D01821BCF
:10099000930B282F269526952670969587959695E4
:1009A000879596958795DC01B695A795B695A795F9
:1009B000AE5EBB4F3C91203019F036952150E9F7DF
:1009C0003370303009F45AC02B010E947702282F6F
:1009D000220F2670DC01B695A795B695A795AE5E59
:1009E000BB4F3C912030432F522F19F04695515068
:1009F000E9F743704330B20109F43FC043E02030CF
:100A000019F0440F2150E9F7432B4C9321E0A30147
:100A1000F101E417F507A401F701E407F50709F46C
:100A200020E021702030D50139F481E080938503E6
:100A3000C3011C017A0123C021E0B301F101E617D3
:100A4000F707B7016407750708F020E02170203030
:100A5000B20109F42FC0D1019D01220F331F4B8138
:100A60005C81240F351FF90180839183AF5FBF4FF5
:100A70001D01C7018F4F9F4F7C01A401D501119625
:100A80006ECF64960FB6F894DEBF0FBECDBF1F9138
:100A90000F91FF90EF90DF90CF90BF90AF909F901D
:100AA0008F907F906F905F904F903F902F90DF914D
:100AB000CF9108950E94A402CF93DF932F923F928B
:100AC0004F925F926F927F928F929F92AF92BF925E
:100AD000CF92DF92EF92FF920F931F93CDB7DEB7C5
:100AE00022970FB6F894DEBF0FBECDBF3C0186E063
:100AF00090E00E940B018C0184E090E00E940B01C9
:100B00006C0182E090E009831A83F8018483958365
:100B100082839383C082D1820FEF1FEF80E090E049
:100B20007C01A80181E097012017310724073507D0
:100B30000CF480E081700F5F1F4F4F4F5F4F80308C
:100B400009F422C02801440C551CC201880F991FCA
:100B5000860D971DFC01A280B38080809180C50125
:100B6000B4011A010E94AF0F84E090E00E940B01D3
:100B7000A101FC01A282B382808291824C0C5D1C97
:100B8000F20180839183CECF89819A8122960FB61C
:100B9000F894DEBF0FBECDBF1F910F91FF90EF9075
:100BA000DF90CF90BF90AF909F908F907F906F908D
:100BB0005F904F903F902F90DF91CF910895CF930A
:100BC000DF932F923F924F925F926F927F928F921C
:100BD0009F92AF92BF92CF92DF92EF92FF920F93CC
:100BE0001F93CDB7DEB7C755D0400FB6F894DEBF20
:100BF0000FBECDBF80917A00876080937A0080918C
:100C00007A00806880937A0081E080936E0085BDD1
:100C100085BB80E08093C50088E08093C40088E9AC
:100C20008093C10086E08093C2008EE693E06BE083
:100C300070E00E9442038091C00080728030D9F33E
:100C400080E28093C60064E274EF80E090E02C01C3
:100C50000E9461030E94310385E00E94520085E0FA
:100C600060E00E9478008CE090E00E940B017C0123
:100C700084E190E0F7018287938720E530E02087C8
:100C8000318783E190E0868397832483358382E1F3
:100C900090E082839383208331838AE090E00E94F6
:100CA0000B016C0188E00FB669968EAF69970FBE95
:100CB0000FB669968EAD9FAD69970FBEF60180871E
:100CC00091878FE390E08683978383E090E084832D
:100CD00095834C0182839383E082F1820FEF1FEFB3
:100CE000A8010F5F1F4F4F4F5F4F81E09401021724
:100CF000130792014207530708F480E081708030A7
:100D000089F4C801880F991F880F991F8E0D9F1DA8
:100D1000FC0182819381608171815A010E94AF0F31
:100D2000A501DFCF89E090E00E940B018C0180E4F7
:100D300090E00E940B017C0188E090E0F80187833D
:100D4000908785839683E382F48288E08283C082E1
:100D5000D182C8010596898B9A8BC80102968D8332
:100D60009E830F831887C80103968F87988B0FEF98
:100D70001FEF87E090E01C0188E290E05C01A80191
:100D800081E09101021713079201420753070CF407
:100D900080E081700F5F1F4F4F4F5F4F8030D1F465
:100DA0006801CC0CDD1CCC0CDD1CCC0CDD1CCE0C8D
:100DB000DF1CC5013A010E940B01A301F6012AE0E4
:100DC00026832AE030E024833583228333838083A3
:100DD0009183D6CF80E590E05C010FB62D96AEAE44
:100DE000BFAE2D970FBE0FB62996AEAEBFAE2997F8
:100DF0000FBE05E110E00FB62B960EAF1FAF2B977D
:100E00000FBE86E190E00FB62F968EAF9FAF2F9763
:100E10000FBECE01895B9F4F0E945C050FB62596E1
:100E2000AEAEBFAE25970FBE0FB62196AEAEBFAE2B
:100E300021970FBE0FB623960EAF1FAF23970FBE9D
:100E400027E130E00FB627962EAF3FAF27970FBEB2
:100E50000FB661968EAF9FAF61970FBECE01CF9652
:100E60000E945C0592012DAF3EAFABAEBCAEAFAA07
:100E7000B8AE09AF1AAF0FB663968EAF9FAF639748
:100E80000FBECE01C7960E945C05ABAABCAAAFA656
:100E9000B8AA09AB1AAB21E030E02DAB3EAB0FB6E0
:100EA00065968EAF9FAF65970FBECE018F960E945D
:100EB0005C050FB667968EAF9FAF67970FBE8CE04D
:100EC00090E00E940B018C0188E090E07C010E9480
:100ED0000B016C01C7010E940B017C0184E090E0D2
:100EE000F8018287938780879187E682F7828483DF
:100EF000958382839383C082D182C80108968D87AF
:100F00009E87C801029689839A830B831C83C8013C
:100F100006968B879C870FEF1FEFA80181E0940155
:100F2000021713079201420753070CF480E0817007
:100F30000F5F1F4F4F4F5F4F803088E090E0E9F424
:100F40005801AA0CBB1C3A01A6014A0D5B1D9E016B
:100F5000215B3F4F2A0D3B1DF90120813181FA01B0
:100F6000208331830E940B01A301FC010483AE0C9A
:100F7000BF1CF50180839183D1CFE0918603F0916E
:100F8000870331960B811C81C80160E0AF010E948C
:100F9000800EE0918603F09187033296C80161E0EC
:100FA000AF010E94800EE0918603F0918703339693
:100FB000C80162E0AF010E94800EE0918603F091CB
:100FC00087033496C80163E0AF010E94800E01E000
:100FD00010E084E090E08B8B9C8B85E061E00E94C8
:100FE000780085E060E00E94780089E793E0B8012E
:100FF0000E9442030E94310364E274EFF2012091E7
:1010000088033091890340918A0350918B0381E0DA
:10101000261737074E075F0708F080E081708030A1
:1010200011F00000ECCFF0938B03E0938A03F09370
:101030008903E0938803809186039091870301964A
:101040005C019093870380938603ED85FE85208164
:101050003181EB85FC85E080F1800FEF1FEFB80157
:101060006F5F7F4F0F4F1F4FA1E062177307C201E1
:101070000807190708F4A0E0A170A03009F0ACC07F
:10108000FB01EE0FFF1FEE0DFF1DA081B181C2011C
:10109000A817B90709F432C6FD018781813009F02C
:1010A000DFCFFD018581968195018217930708F0B6
:1010B0006FC1FD0122813381B2012617370701E09C
:1010C00010E009F417C6CD010796AC01FD01359675
:1010D0002A0D3B1D2083318380E0FA018083FD01CE
:1010E0008481982F990F990B9C01359527953595FB
:1010F00027953595279535952795359527953595D8
:1011000027953595279535952795359527953595C7
:1011100027953595279535952795359527953595B7
:1011200027953595279541E0EB89FC898E179F0718
:1011300026073707DB010CF440E04170403009F02E
:101140002AC141E06B897C89861797072A073B07EC
:1011500008F040E04170403009F4CEC5EB81FC81DD
:1011600020813181880F991F820F931FFC0180819C
:1011700091818A179B0709F4C1C5FC01C280D38005
:10118000E080F1808FEF9FEF8C019C010F5F1F4F7C
:101190002F4F3F4F81E00C151D052A073B0708F034
:1011A00080E08170803009F4F4C0C801880F991F75
:1011B0008E0D9F1DFC01808191818A179B0709F488
:1011C0009DC5FC01828193816081718159010E94DA
:1011D000B90F9501D201DACFD2012A173B0709F4E2
:1011E000D8C0F70160817181AFEFBFEFAD014F5FF4
:1011F0005F4FAF4FBF4F11E042175307C201A8071F
:10120000B90708F010E01170103009F41CC0FA01A1
:10121000EE0FFF1FEE0DFF1D00811181C2010817A7
:10122000190709F46BC56817790709F467C5FB014D
:1012300085819681F801C580D680C816D90608F048
:101240008B01B801D4CFD2016A177B0709F4A1C082
:10125000FB018781803001E010E009F09CC0FB01B8
:101260008581968195018217930708F094C0FB0150
:10127000208131812A173B0709F48DC0DB011796C5
:10128000CB0105962A0D3B1DFC012083318321E013
:101290002C93D201E981FA81E080F180FB01848105
:1012A000982F990F990BAC015595479555954795F2
:1012B0005595479555954795559547955595479516
:1012C0005595479555954795559547955595479506
:1012D00055954795559547955595479555954795F6
:1012E00055954795EB8AFC8A8E159F054A075B0743
:1012F0000CF420E02170203009F04DC021E06B8912
:101300007C89861797074A075B0708F020E0217061
:10131000203009F4F1C4EB81FC8120813181880FF8
:10132000991F820F931FFC01808191818A179B076F
:1013300009F4E4C4FC01C280D380E080F1808FEF27
:101340009FEF8C019C010F5F1F4F2F4F3F4F81E09C
:101350000C151D052A073B0708F080E081708030DE
:10136000C1F0C801880F991F8E0D9F1DFC0180815F
:1013700091818A179B0709F4C1C4FC018281938182
:101380006081718159010E94C40F9501D201DBCFA8
:10139000D20101E010E0ED81FE81D08080E08090FC
:1013A0008603909087038D150CF0CBC1EF81F885F3
:1013B000E080F180EA16FB0609F4A0C4C82EF7010C
:1013C000A280B380608071808FEF9FEF8C01AC01B1
:1013D0000F5F1F4F4F4F5F4F81E00A151B054A07F4
:1013E0005B0708F080E08170803009F433C081E051
:1013F00028E030E0021713074A075B0708F080E097
:101400008170803009F478C41A01C801880F991FCF
:10141000880F991F860D971DFC0160817181D8018D
:10142000AA59BC4F2C91322F8C2D3823C801880F1C
:10143000991F880F991F860D971DFC01828193814A
:10144000321719F40E94C40F02C00E94B90FD201D2
:10145000A101BECFE989FA89208131818C2D982F95
:10146000990F990BBC01759567957595679575955D
:101470006795759567957595679575956795759554
:101480006795759567957595679575956795759544
:101490006795759567957595679575956795759534
:1014A000679541E0821793076A077B0708F040E0E1
:1014B0004170403009F420C4F701268137814FE3A1
:1014C00050E02417350709F019C4EF85F8896080CA
:1014D0007180F70120852770206620937C00209181
:1014E0007A00206420937A0020917A0020742030C2
:1014F000D9F740917800209179006A167B0609F4AB
:10150000FDC3880F991F880F991F880F991F680EB8
:10151000791EF301628173818781E82EF82EFF0C1A
:10152000FF08F701F595E795F595E795F595E795AA
:10153000F595E795F595E795F595E795F595E79593
:10154000F595E795F595E795F595E795F595E79583
:10155000F595E795F595E795F595E795F595E79573
:1015600051E0E616F706EA07FB0708F050E0517075
:10157000503009F4C1C3220F331F220F331F220F33
:10158000331F220F331F220F331F220F331F220F4F
:10159000331F220F331F5527422B532BC3010796AE
:1015A0008D01D3011296F30120813181EE0CFF1CD5
:1015B000EE0CFF1CE20EF31EF70142835383FD0184
:1015C00020813181FC011F018081982F990F990B97
:1015D000BC01759567957595679575956795759532
:1015E00067957595679575956795759567957595E3
:1015F00067957595679575956795759567957595D3
:10160000679575956795759567957595679541E0AB
:10161000821793076007710708F040E0417040307F
:1016200009F46AC3F3012081318182012017310757
:1016300009F464C3880F991F880F991F280F391F59
:10164000F90180829182FD0140815181D1018C910B
:10165000282F382F330F330BB90175956795759582
:101660006795759567957595679575956795759562
:101670006795759567957595679575956795759552
:101680006795759567957595679575956795759542
:1016900067957595679591E0241735076007710781
:1016A00008F090E09170903009F426C3F301408176
:1016B00051814017510709F421C3220F331F220F14
:1016C000331F420F531FFA01A080B180E280F380E4
:1016D000982F99234AF49091C00090729030D9F3DA
:1016E0009DE29093C60081950E9496038091C00070
:1016F00080728030D9F380E28093C600B701C201C6
:101700000E9461038091C00080728030D9F380E232
:101710008093C600B5018201C8010E9461030E9446
:101720003103F3016681D1018C917D0183950E9483
:101730006C0FD801F70190838C2D839501E010E0A8
:1017400032CEE989FA89808191818D8B9E8BEF85DC
:10175000F8898081918189879A878FEF9FEFBC01FB
:10176000AC016F5F7F4F4F4F5F4F81E02D893E8906
:10177000621773074A075B0708F080E081708030CA
:1017800009F455C2CB01880F991F880F991F880F44
:10179000991F29853A85820F931FFC01228133818D
:1017A0002A173B0709F4A8C2FC01808191818A179E
:1017B0009B0709F4A3C24BA75CA742E050E02417A3
:1017C000350708F499C22417350709F495C244E097
:1017D00050E02417350708F48FC22417350709F4A1
:1017E0008BC246E050E02417350708F485C2241761
:1017F000350709F481C248E050E02417350708F4A2
:101800007BC22417350709F477C26DA77EA7FC01B8
:101810008280938060817181A680B7800481158168
:10182000C284D384E084F1846684778424843584FC
:1018300082899389898F9A8F808991898F8B988FDC
:10184000868997898D8F9E8F848995898B8F9C8FB0
:10185000828D938D89A39AA3808D918D8F8F98A36C
:1018600082A193A189A79AA780A191A18FA398A7EC
:10187000848D958D8BA39CA3868D978D8DA39EA320
:10188000CD010E9461038091C00080728030D9F345
:1018900080E28093C6008AE793E061E070E00E94F6
:1018A00042038091C00080728030D9F380E280933F
:1018B000C600B401C2010E9461038091C000807221
:1018C0008030D9F380E28093C6008BE793E062E03A
:1018D00070E00E9442038091C00080728030D9F392
:1018E00080E28093C600B801C2010E94610380912A
:1018F000C00080728030D9F380E28093C6008AE70E
:1019000093E001E010E0B8010E9442038091C00022
:1019100080728030D9F380E28093C600B501C201A5
:101920000E9461038091C00080728030D9F380E210
:101930008093C6008BE793E062E070E00E94420370
:101940008091C00080728030D9F380E28093C6001D
:10195000B701C2010E9461038091C0008072803093
:10196000D9F380E28093C6008AE793E0B8010E9431
:1019700042038091C00080728030D9F380E280936E
:10198000C600B601C2010E9461038091C00080724E
:101990008030D9F380E28093C6008BE793E062E069
:1019A00070E00E9442038091C00080728030D9F3C1
:1019B00080E28093C600B101C2010E946103809160
:1019C000C00080728030D9F380E28093C6008AE73D
:1019D00093E0B8010E9442038091C0008072803081
:1019E000D9F380E28093C600B301C2010E94610373
:1019F0008091C00080728030D9F380E28093C6006D
:101A00008BE793E062E070E00E9442038091C000A7
:101A100080728030D9F380E28093C6006F89788D20
:101A2000C2010E9461038091C00080728030D9F3AE
:101A300080E28093C6008AE793E0B8010E944203E7
:101A40008091C00080728030D9F380E28093C6001C
:101A5000698D7A8DC2010E9461038091C0008072FD
:101A60008030D9F380E28093C6008BE793E062E098
:101A700070E00E9442038091C00080728030D9F3F0
:101A800080E28093C6006B8D7C8DC2010E94610351
:101A90008091C00080728030D9F380E28093C600CC
:101AA0008AE793E0B8010E9442038091C0008072EF
:101AB0008030D9F380E28093C6006D8D7E8DC201A7
:101AC0000E9461038091C00080728030D9F380E26F
:101AD0008093C6008BE793E062E070E00E944203CF
:101AE0008091C00080728030D9F380E28093C6007C
:101AF0006F8D78A1C2010E9461038091C000807245
:101B00008030D9F380E28093C6008AE793E0B80181
:101B10000E9442038091C00080728030D9F380E23D
:101B20008093C60069A17AA1C2010E9461038091DD
:101B3000C00080728030D9F380E28093C6008BE7CA
:101B400093E062E070E00E9442038091C0008072E6
:101B50008030D9F380E28093C6006BA17CA1C201E2
:101B60000E9461038091C00080728030D9F380E2CE
:101B70008093C6008AE793E0B8010E9442038091F7
:101B8000C00080728030D9F380E28093C6006DA1DE
:101B90007EA1C2010E9461038091C00080728030EA
:101BA000D9F380E28093C6008BE793E062E070E0B7
:101BB0000E9442038091C00080728030D9F380E29D
:101BC0008093C6006FA178A5C2010E946103809135
:101BD000C00080728030D9F380E28093C6008AE72B
:101BE00093E0B8010E9442038091C000807280306F
:101BF000D9F380E28093C60069A57AA5C2010E944C
:101C000061038091C00080728030D9F380E28093BC
:101C1000C6008BE793E062E070E00E9442030E94FE
:101C20003103D2016DA57EA54BA55CA59ACD8FEFA2
:101C30009FEFBC016F5F7F4F8F4F9F4F41E02B891C
:101C40003C89621773078A079B0708F040E04170E0
:101C5000403009F4C2C9ED85FE852081318141E023
:101C6000621773078A079B0708F040E04170403015
:101C700009F442C0AB01440F551FEB85FC85208160
:101C80003181240F351FF901208131812A173B074B
:101C900009F434C0F901E580F68017816B015C011D
:101CA0000E9461038091C00080728030D9F380E28D
:101CB0008093C600103021F087E493E064E003C015
:101CC0008BE493E065E070E00E94420301E010E0E5
:101CD000C2012091C00020722030D9F320E220936D
:101CE000C600B7010E9461030E943103D201B60110
:101CF000C501A0CFDB014FCB0E94A4020E942A03A2
:101D00001F9320E030E08217930709F454C0FC01D0
:101D1000A085B185762F770F770BFB01F595E795B9
:101D2000F595E795F595E795F595E795F595E7959B
:101D3000F595E795F595E795F595E795F595E7958B
:101D4000F595E795F595E795F595E795F595E7957B
:101D5000F595E795F595E79511E06A177B07E2079A
:101D6000F3070CF410E01170103009F022C011E0FC
:101D70006A177B07E207F30708F010E011701030D4
:101D8000E1F0FC0186819781660F771F680F791F4C
:101D9000FB01808191818217930769F0FC014583E3
:101DA00056838CE390E08283938386E090E0808387
:101DB00091831F9108950E942A030E94A4020F920A
:101DC0001F920FB60F9200242F938F939F93AF9380
:101DD000BF938091C6009091C0009C719030A1F497
:101DE0009091100420911104921B903869F0909109
:101DF0001004939590931004909110049F77A92F4D
:101E0000BB27A057BC4F8C93BF91AF919F918F91EF
:101E10002F910F900FBE1F900F9018950F921F9249
:101E20000FB60F9200242F933F938F939F9380912F
:101E300088039091890320918A0330918B038F5FEF
:101E40009F4F2F4F3F4F9093890380938803309388
:101E50008B0320938A039F918F913F912F910F9035
:101E60000FBE1F900F901895DF93CF931F930F9382
:101E7000FF92EF92DF92CF92BF92AF929F928F929A
:101E80007F926F925F924F923F922F928DB79EB743
:101E90000E94E0032F903F904F905F906F907F9053
:101EA0008F909F90AF90BF90CF90DF90EF90FF907A
:101EB0000F911F91CF91DF910F930027A89504BF39
:101EC00000916000086100936000002700936000AB
:101ED0000F9118958895FECF87FB082E062687FD63
:101EE000819567FD61950E949C0F0EF4919507FC0A
:101EF00081950895A1E21A2EAA1BBB1BFD010DC0FE
:101F0000AA1FBB1FEE1FFF1FA217B307E407F507A9
:101F100020F0A21BB30BE40BF50B661F771F881F85
:101F2000991F1A9469F760957095809590959B011B
:101F3000AC01BD01CF010895991B79E004C0991F40
:101F4000961708F0961B881F7A95C9F78095089513
:101F5000DC0101C06D9341505040E0F7089520E549
:101F600030E06217730719F40E94520008950E942E
:101F70002A0320E530E06217730721F460E00E9435
:101F8000780008950E942A0320E530E06217730765
:101F900021F461E00E94780008950E942A036F7581
:101FA00074206F66206D656D6F7279000000696E38
:101FB000646578206F7574206F662072616E676546
:101FC00000000000000000000000000000006E693A
:101FD0006C20706F696E74657220646572656665E9
:101FE00072656E63657472756566616C7365706148
:101FF0006E69633A2072756E74696D6520657272E0
:102000006F723A20010204081020400048656C6C91
:0B2010006F21204350533D7A3D2C20EF
:00000001FF
